:020000040800F2
:10000000981800203902000897310008AD2F000829
:100010009531000875140008E5380008000000005C
:10002000000000000000000000000000A101000826
:100030007714000800000000E5010008A93200085C
:10004000530200085302000853020008530200083C
:10005000530200085302000853020008530200082C
:10006000530200085302000853020008530200081C
:10007000530200085302000853020008530200080C
:1000800053020008530200085302000853020008FC
:1000900053020008530200085302000853020008EC
:1000A00053020008530200085302000853020008DC
:1000B000530200085302000851330008530200089D
:1000C00053020008530200085302000853020008BC
:1000D00053020008D93800085302000853020008F0
:1000E00053020008530200085302000800F002F80F
:1000F00000F047F80AA090E8000C82448344AAF17B
:100100000107DA4501D100F03CF8AFF2090EBAE878
:100110000F0013F0010F18BFFB1A43F0010318473B
:10012000E84A0000084B0000103A24BF78C878C1A4
:10013000FAD8520724BF30C830C144BF04680C60ED
:10014000704700000023002400250026103A28BF35
:1001500078C1FBD8520728BF30C148BF0B60704739
:10016000662904F0BD84002070471FB500F0B6FB7F
:1001700004000020002104F08BF9E0601FBD10B5E1
:1001800010BD00F0ABFC1146FFF7EFFF03F0F2FBF0
:1001900000F0C9FC03B4FFF7F2FF03BC00F00CFD54
:1001A000224B19680868B0E8F00F80F30988BFF3A4
:1001B0006F8F4FF0000080F311884EF00D0E7047E6
:1001C0000000000006480068006880F3088862B6F6
:1001D00061B6BFF34F8FBFF36F8F00DF00BF00BF6B
:1001E00008ED00E0EFF30980BFF36F8F0F4B1A6843
:1001F00020E9F00F106008B54FF0500080F311882F
:10020000BFF34F8FBFF36F8F03F0A2FF4FF00000DB
:1002100080F31188BDE8084019680868B0E8F00F5D
:1002200080F30988BFF36F8F704700BF380000204C
:10023000EFF30580704700000948804709480047F0
:10024000FEE7FEE7FEE7FEE7FEE7FEE7FEE7FEE786
:10025000FEE7FEE704480549054A064B70470000E3
:100260004D330008ED000008981200209818002077
:1002700098140020981400200FB41CB50C0007AA95
:10028000009001D02044401E074B7B4469460190FA
:10029000069800F002FB002C03D06946002000F015
:1002A0000FFB1CBC5DF814FB3D0600002DE9F04778
:1002B0004FF0000A89460446C0F820A02046E168B5
:1002C0008847002876D0252806D0D4E90121904718
:1002D000206A401C2062F1E7E1682046002588473B
:1002E000C4F81CA006460027C4F818A02A2E09D07E
:1002F000304603F01CFB38B304EB8708303EC8F8E7
:10030000186019E059F8041B204604EB870291613C
:10031000E1688847012F064618D1E069002820DAF5
:1003200025F020051DE0D8F8180000EB800006EB52
:1003300040003038C8F818002046E1688847064673
:1003400003F0F5FA0028EED1012F0AD02E2E08D1A5
:100350002046E16888477F1C0646022F45F02005AD
:10036000C4DBA069002803DA404245F00105A06122
:10037000E80701D025F01005B6B1A6F14100192813
:1003800002D8203645F400654A46314620462560AD
:100390004D46FFF7E5FE58B1012806D0ED1D25F0CA
:1003A000070000F1080989E704E005F1040985E781
:1003B00030468AE7206ABDE8F08710B5203AC0F0E1
:1003C0000B80B1E81850203AA0E81850B1E8185056
:1003D000A0E81850BFF4F5AF5FEA027C24BFB1E893
:1003E0001850A0E8185044BF18C918C0BDE8104004
:1003F0005FEA827C24BF51F8043B40F8043B08BF0D
:100400007047D20728BF31F8023B48BF11F8012BD3
:1004100028BF20F8023B48BF00F8012B70474FF07F
:10042000000200B5134694469646203922BFA0E844
:100430000C50A0E80C50B1F12001BFF4F7AF090750
:1004400028BFA0E80C5048BF0CC05DF804EB890041
:1004500028BF40F8042B08BF704748BF20F8022B84
:1004600011F0804F18BF00F8012B7047704770479C
:10047000704770472DE9FF4F0C461E464FF0FF377F
:100480008BB0D2E90001DDF860800A908A46C1F3A2
:100490000A5505B93D46002108464FF00000BAF163
:1004A000000F00F4400005DA00EB80004FF440013B
:1004B00001EA50004FEA9059B9F1010F00DDB94649
:1004C0000A9850EA4A000ED044F61050A5F2FF35C3
:1004D00045432F14B8F1000F1ED07542291E1EDDB2
:1004E000C9F100021CE0B8F1010F4FF0000001D08B
:1004F000302103E0F24305E02154401CB042FBDB15
:1005000030460022002121540B99C1F80880C1E92E
:1005100000200FB0BDE8F08FBD1B6D1CDEE74A4622
:1005200000DA694206A800F063FA06AB93E8070018
:1005300003AB83E8070050460A9900F044FB8DE8BE
:100540000700A0F500501F3800900398002D0ADD29
:1005500042F21F014A460844002303A9039068465B
:1005600000F0ADFD09E0A0F500504A461F38002319
:1005700003A90390684600F0B7FD8DE8070000046A
:10058000000C03D04FF0FF30410800E01046B8F1F6
:10059000000F03D00022009215461EE0751E05D400
:1005A00000F0A0F9303262556D1EF9D5B346012234
:1005B000084302D000227F1C04E02078302801D1BB
:1005C00000227F1E002A099784D01DE0112D07DA32
:1005D00000F088F9303262556D1C50EA0102F5D105
:1005E000084302D00098C8B10EE00021681E05E063
:1005F000235C625C63542254401E491C8142F7DB39
:10060000AB46A81B401E0990002004F80B000B9875
:10061000099AC0F80880C0E9002B7AE711264FF04C
:10062000000857E72DE9F04F88460446D21D22F016
:10063000070191B0D1E90001CDE90A0103F053F9B6
:1006400002460B98C00F01D02D2007E020688107DB
:1006500001D52B2002E0202101EAC000032A0990E5
:1006600001D0072A05DB03464146204600F080F909
:100670000BE12078800601D5E06900E00620B8F1A2
:10068000650F814606D0B8F1660F18D0B8F1670F34
:1006900070D131E00020B9F1110F009001DB11237E
:1006A00001E009F101030AAA01A90CA8FFF7E2FE83
:1006B000DDE90C70002609F10105834647E00120C1
:1006C0004B4600904FF000470AAA01A90CA8FFF77B
:1006D000D1FEDDE90DB00C995D46002610B909F197
:1006E00001000D18B9EB050003D4C0F1FF3609F184
:1006F0000105A5EB09002BE0B9F1010F01DA4FF07C
:1007000001090020B9F1110F0090484601DD1123C5
:1007100000E003460AAA01A90CA8FFF7ABFEDDE939
:100720000C704D4600268346207800070AD4AB455E
:1007300000DA5D4601A8012D04DD411911F8011C04
:10074000302907D04F4502DA17F1040F04DA0120EF
:1007500082460FE06D1EEEE7002F02DCED1B3E44EB
:1007600003E0781CA84200DD7D1CB81B00F1010AE3
:100770004FF000472078000703D4AA4501DB4FF073
:10078000FF3A0021B7F1004F0DF143088DF84310F7
:1007900024D002202B23002F01DA7F422D230A21AF
:1007A000021EA0F1010000DC5FB197FBF1FC97FB9A
:1007B000F1F201FB1C7C17460CF1300C08F801CD5E
:1007C000EEE7A8F1010003702188090501D5452154
:1007D00000E06521A0F1010800F8011C09980FA9AB
:1007E000A1EB0807FF1D00B10120411901EBEA70E0
:1007F000A1693844081A401EA0612078C00602D4BE
:100800002046AFF30080099828B1D4E90121904730
:10081000206A401C20622078C00622D52046AFF313
:1008200000801EE0002E04DBB34502DD01A8805DE0
:1008300000E03020D4E901219047206A401C20626A
:10084000761CAAF101005FEA000A0AD100F046F81E
:10085000C0680168405CD4E901219047206A401CCF
:100860002062281EA5F10105DCDC07E0D4E90121A6
:1008700018F8010B9047206A401C2062381EA7F12F
:100880000107F3DC2046AFF30080032011B041E6FE
:1008900001694A1C02610878704700B58FB0CDE944
:1008A00001310021059105497944CDE90310114634
:1008B0006846FFF7FBFC0FB000BD0000E5FFFFFF3F
:1008C0000A6802F8010B0A607047D1E900239A42D6
:1008D00002D2531C0B601070704700000048704734
:1008E0005412002030B5B0F10A024FEA900E71F1B7
:1008F00000034EEA817EB0EB0E0061EB91014FEAFE
:10090000101E4EEA017E10EB0E0041EB11114FEA72
:10091000102E4EEA016E10EB0E0041EB11214FEA52
:10092000104E4EEA014E10EB0E0041EB1141401803
:1009300041F100014FEAD00040EA41704FEAD10195
:1009400010EB80054FEA810444EA907444EB010403
:100950006D1944EB0404521BA3414FF0000348BF40
:100960000A3200D530BD401C41F1000130BD00000D
:100970002DE9F0411F46044603260168072A01F4C9
:10098000006004DB08B116A505E016A503E008B178
:1009900015A500E015A521F010002060A069C01E7B
:1009A000A0610FB1401EA0612046AFF300804FB19F
:1009B000D4E9012138469047206A401C2062C01CBF
:1009C000206206E0206AFAE7D4E9012115F8010B5C
:1009D0009047761EF8D22046AFF30080BDE8F08144
:1009E0004E414E006E616E00494E4600696E6600D3
:1009F0002DE9F047814616468AB0354878440DC83F
:100A00008DE80D0032487844801C03AC0DC884E8A2
:100A10000D0041F69B300844372190FBF1F290FB2A
:100A2000F1F5A5F1800501FB12041B3C02D56442DF
:100A3000012000E00020DFF898A080460027FA445B
:100A4000AAF1BE0A0EE0E0070AD03246684607EB7C
:100A5000470101230AEB810100F046FB8DE8070006
:100A600064107F1C002CEED1194F7F44AE3F19E07B
:100A7000E80715D007EB04100DF1180A90E80E00F6
:100A80008AE80E00C068F04201D1981908903246F9
:100A9000012306A903A800F027FB03AB83E80700A6
:100AA0006D10641C002DE3D14FF0010332466946FE
:100AB000B8F1000F03A802D000F001FB01E000F044
:100AC00013FBC9E90001C9F808200AB0BDE8F087A6
:100AD000CC41000000487047341200207546FFF7F3
:100AE000F9FFAE4605006946534620F007008546EB
:100AF00018B020B5FFF7AEFBBDE820404FF0000670
:100B00004FF000074FF000084FF0000B21F00701F5
:100B1000AC46ACE8C009ACE8C009ACE8C009ACE838
:100B2000C0098D46704710B50446AFF300802046DB
:100B3000BDE81040FFF72EBB4FF0013C50F8042BEE
:100B400051F8043B9A4221D1A2EB0C03934313EAE0
:100B5000CC1317D150F8042B51F8043B9A4215D10D
:100B6000A2EB0C03934313EACC130BD150F8042BE4
:100B700051F8043B9A4209D1A2EB0C03934313EAC8
:100B8000CC13DBD04FF00000704700BFD01A01BA81
:100B9000B1FA81F101F0180122FA01F0CB40C1F164
:100BA0002001DBB2C0B2C01A2CFA01F3D11A914372
:100BB00011EAC311E6D1704701491820ABBEFEE728
:100BC0002600020070475FEA400C08BF91F0000F5A
:100BD0004FEA8C234FEAC12243EA51514FEA1C509D
:100BE00018BF00F5F0404FEA300018BF41F0004157
:100BF0005FEA6C5C00F02980BCF1FF3F08BF40F069
:100C000080407047130C06BF12044FF0100C4FF0D9
:100C1000000C130E04BF12020CF1080C130F04BFDA
:100C200012010CF1040C930F04BF92000CF1020CA2
:100C3000D30F04BF52000CF1010C11464FF000021B
:100C4000A0F11F00A0EB0C00704711F0004F08BF8F
:100C5000704731F000413FF4D5AF0B0C06BF0904DB
:100C60004FF0100C4FF0000C0B0E04BF09020CF1FA
:100C7000080C0B0F04BF09010CF1040C8B0F04BF0F
:100C800089000CF1020CCB0F04BF49000CF1010CE0
:100C9000CCF12003A0EB0C0022FA03F302FA0CF2D1
:100CA00041EA030100F10100704720F07F4C80EA27
:100CB000030023F07F47ACEB070303F57C5300F000
:100CC000004003F1FF032DE980494FEA154B09B4B9
:100CD0004FEA144325EA0B4E24EA03480FF2042698
:100CE00006EB132749083E785FEA320203FB0667EA
:100CF000C7F5000707FB06F64FEA54374FEAD6461A
:100D000006F1020607FB066CCCF1005C4FEA1C47BB
:100D10002CEA074C07FB06F40CFB06F504EB154622
:100D20004FEA961634BF00204FF000404FEAD1370B
:100D300006FB07FC4FEA1C4C0CFB0BF7D21B03FB1A
:100D40000CF761EB07010CFB0EF7B0EB074072EB01
:100D500017420CFB08F734BFA2EB0742B2EB074285
:100D600061EB17414FEA0C444FEA910706FB07FC81
:100D70004FEA1C4C0CFB0BF7B0EBC74072EB573241
:100D800003FB0CF734BFA2EBC742B2EBC74261EBE7
:100D900057310CFB0EF7B0EBC70072EB57720CFB30
:100DA00008F734BFA2EBC702B2EBC70261EB577181
:100DB000039F4FEA816141EA921104EBCC044FEAB0
:100DC000D1374FEA826206FB07FC42EA90124FEAF3
:100DD00080604FEA1C4C0CFB0BF7D21B03FB0CF79B
:100DE00061EB07010CFB0EF7B0EB074072EB17420B
:100DF0000CFB08F734BFA2EB0742B2EB074261EBF2
:100E000017414FEA8C554FEA910704EB9C2406FBEF
:100E100007FC4FEA1C4C0CFB0BF7B0EBC74072EB26
:100E2000573203FB0CF734BFA2EBC742B2EBC74209
:100E300061EB57310CFB0EF7B0EBC70072EB57724A
:100E40000CFB08F734BFA2EBC702B2EBC70261EBA1
:100E5000577115EB4C254FEA816141EA92114FEA37
:100E600082624FEAD13742EA901206FB07FC44F156
:100E700000044FEA80604FEA1C4C0CFB0BF7D21BBE
:100E800003FB0CF761EB07010CFB0EF7B0EB07401F
:100E900072EB17420CFB08F734BFA2EB0742B2EB30
:100EA000074261EB174115EB1C154FEA813141EA0E
:100EB00092414FEA823242EA90424FEA80304FEA52
:100EC0000C7644F1000448EA03434EEA0B484FF025
:100ED000000EB2EB080C71EB030724BF62463946E3
:100EE0004EEB0E0E4FF0000B0018524149414BEBF8
:100EF0000B0BB2EB080C71EB03077BF1000B24BF6B
:100F0000624639464EEB0E0E4FF0000B0018524170
:100F100049414BEB0B0BB2EB080C71EB03077BF178
:100F2000000B24BF624639464EEB0E0E51EA020713
:100F300018BF46F0010616EB0E7655F1000254F18B
:100F4000000103D5BDE88901BDE80088BDE889013D
:100F5000BDE80048B619524141EB0101A3F101037C
:100F6000704780807F7E7D7C7B7A79787776767516
:100F70007473727171706F6E6E6D6C6C6B6A6A698E
:100F80006868676666656464636362616160605F28
:100F90005F5E5E5D5D5C5C5B5B5A5A5959585857A1
:100FA0005756565555555454535352525251515009
:100FB00050504F4F4F4E4E4D4D4D4C4C4C4B4B4B5C
:100FC0004A4A4A49494948484847474747464646A2
:100FD00045454544444444434343434242424241DD
:100FE0004141002B9C4630D477002BD01CB54FEAF2
:100FF000370703B44FF010004FF01001BAF1000FA3
:1010000006D0BCF1000FDCBF40F0080040F0080142
:101010004FF000000FBCBDE810400BF1010BBBF11D
:10102000010F08BF5FEA170722BF12F1010211F199
:1010300001014FF0004143F1000300F0004043EA9A
:1010400000007047F9D35708D0E746EA064613F187
:10105000400F4FEA16461FDD13F1200FDFBF164386
:101060000A46002120335B42BED0C3F1200746EA86
:10107000064602FA07F74FEA164646EA0706C3F1A4
:10108000200722FA03F201FA07F721FA03F14FF0E1
:10109000000342EA0702A7E746EA020646EA0646D6
:1010A0004FEA164646EA0106BCBF46EA0646360C3B
:1010B0004FF000034FF000024FF0000194E72DE9DC
:1010C000804C9A46934670B491E8380007C831EADC
:1010D000400C48BF34EA430C03D5FFF7E6FDFFF7A9
:1010E00080FFF0BCBDE8008C2DE9804C9A46934609
:1010F00070B491E8380007C810F0804F08BF13F0B3
:10110000804F03D100F005F8FFF76BFFF0BCBDE89E
:10111000008C20F07F4780EA030023F07F4C07EB30
:101120000C03A3F57C5300F00040A3F1FE0392F002
:10113000000F00F0B38095F0000F00F077802DE9EC
:1011400001494FEA11404FEA144621EA004800FBEA
:1011500006FC24EA064708FB06F607FB08F800FB36
:1011600007F718EB06484CEB164C4FEA124B18EBFE
:1011700007484FEA15464CEB174022EA0B4E0BFB93
:1011800006FC25EA06470EFB06F607FB0EFE0BFBE8
:1011900007F71EEB064E4CEB164C4FF000061EEB0D
:1011A000074E4CEB174B18EB0B0840F1000018EB07
:1011B0000E0B58EB000840F100008F1A4FF00001B1
:1011C0003CBFC943661B14BFB5EB040C00213CBFF8
:1011D000C943F61B4FEA17444EEA8E0E27EA044530
:1011E0004FEA1C4704FB07622CEA074C05FB07F794
:1011F0000CFB05F604FB0CFC16EB074642EB174212
:1012000016EB0C4642EB1C421BEB060658EB0202A7
:10121000414146EA9E0601D5BDE80189B619524111
:1012200041EB0101A3F10103BDE801894FEA144537
:101230004FEA114724EA054621EA074C05FB07F46B
:1012400006FB07F70CFB06F105FB0CFC11EB074155
:1012500044EB17444FEA124711EB0C4144EB1C449A
:1012600022EA074C05FB07F206FB07F70CFB06F624
:1012700005FB0CFC16EB074642EB174216EB0C463F
:1012800042EB1C456A1854F1000148BF7047B6197B
:10129000524141EB0101A3F10103704795F0000FAA
:1012A00037D04FEA11424FEA144721EA024624EAB6
:1012B000074C02FB07F106FB07F70CFB06F402FBE9
:1012C0000CFC14EB074441EB17414FEA154714EBB4
:1012D0000C4441EB1C4125EA074C02FB07F506FBD9
:1012E00007F70CFB06F602FB0CFC16EB074645EB7A
:1012F000174516EB0C4645EB1C42121951F1000143
:1013000048BF7047B619524141EB0101A3F10103F7
:1013100070474FEA14454FEA114724EA054621EA8F
:10132000074C05FB07F106FB07F70CFB06F24FF035
:10133000000605FB0CFC12EB074241EB174112EBD8
:101340000C4251EB1C4148BF7047921841EB010120
:10135000A3F101037047000070B50446006881687E
:10136000C943C90717D1816821F00101816000F0EC
:101370004BFC05460AE000BF00F046FC401B02287B
:1013800004D920688068C043C00706D02068806800
:10139000C043C007F0D0002070BDA06A40F010002C
:1013A000A062E06A40F00100E062012070BD000030
:1013B000F8B500260446009600688168C943C9074D
:1013C0002DD0816841F001018160164816490068FE
:1013D000B0FBF1F000E0401E00900028FBD100F0CF
:1013E00013FC054616E000BF00F00EFC401B02286F
:1013F00010D920688068C043C0070BD0A06A40F0B5
:101400001000A062E06A40F00100E06284F824600D
:101410000120F8BD20688068C043C007E4D10020E7
:10142000F8BD00003400002040420F000EB500203F
:10143000009001200190072002906946034800F0C7
:1014400029F8002801D072B6FEE70EBD98000020F2
:101450000EB50120009001900720029069460448D3
:1014600000F018F8002801D072B6FEE70EBD0000AB
:1014700098000020FEE7704770B5054600244FF441
:101480007A7604E0304602F059FA641CA4B2AC4209
:10149000F8D370BDF8B50024009490F824202546B8
:1014A000012A12D0012280F824204A681F23072A2B
:1014B0000DD20668776B521E02EB820293409F4367
:1014C0000B6893401F43776319E00220F8BD06685C
:1014D0000D2A0AD2376BD21F02EB820293409F4340
:1014E0000B6893401F43376309E0F76A0D3A02EB3C
:1014F000820293409F430B6893401F43F7620A6840
:10150000072306680A2A0AD3F7680A3A02EB42025E
:1015100093409F438B6893401F43F76008E037690F
:1015200002EB420293409F438B6893401F43376115
:101530000A68102A01D0112A20D1124B02689A425F
:1015400017D193681B0219D4936843F40003936086
:101550000968102912D10C490C4A0968B1FBF2F153
:1015600001EB8101490000E0491E00910029FBD1F7
:1015700004E0816A41F020018162012480F8245056
:101580002046F8BD002401403400002040420F00F6
:101590000068C06C704700002DE9F0414FF0000773
:1015A00004003D467ED0A06A002628B9E66284F891
:1015B0002460204600F07EF82046FFF7CDFEA16AA9
:1015C000C90600D420B1A06A40F01000A06269E012
:1015D000A16A21F4885141F00201A1626268E169C7
:1015E000237B0A4347EA43010A43A1684FF480770B
:1015F000B94209D0012907D05FF0000194F814C066
:10160000BCF1010F02D00AE03946F7E7F3B1A36A53
:1016100043F02003A362E36A43F00103E36223681B
:10162000D3F804C02CF4694C4CEA010CC3F804C094
:1016300021688B68DFF870C003EA0C0313438B60EA
:10164000A168B9420BD0012909D00CE0DFF85CC0D9
:10165000A3690CEB43330B4343F40061DFE7218ABA
:101660000D05A5F580152168CB6A23F470032B4383
:10167000CB62216889680E4B1940914208D1E6621D
:10168000A16A21F0020141F00101A162BDE8F081EF
:10169000A06A20F0020040F01000A062E06A40F072
:1016A0000100E0620120F1E7FDF7E1FF00E0FFFF4C
:1016B000FE0E1FFF00B585B000210091019102913F
:1016C000039100680E49884217D10E48816941F4A0
:1016D00000718161816901F400710491816941F0B7
:1016E000040181618069694600F0040004900320D0
:1016F00000900190044800F091F905B000BD000091
:101700000024014000100240000801402DE9F84388
:1017100000270D460446009700F076FA80462068C0
:101720008168C90508D5A06A40F02000A06284F84D
:1017300024700120BDE8F8834168C90503D4C06A5C
:1017400010F4700F2AD0022000F02EFB3B490968EC
:10175000B1FBF0F62068036939490B424FEA610199
:101760004FEAA1121FD1C3684FEA611C13EA0C0FA4
:1017700019D103690B4225D1C068104222D114202F
:1017800023E0681C0AD02DB100F03EFAA0EB08005F
:10179000A84203D920680068800725D52068006822
:1017A0008007EED52DE003690B4202D1C1681142DA
:1017B00006D0026923490A4206D1C068084203D113
:1017C000542002E0292000E0FC204643009816E067
:1017D000681C11D02DB100F017FAA0EB0800A84248
:1017E0000AD90098B04207D2A06A40F00400A06273
:1017F00084F8247003209DE70098401C0090B042BC
:10180000E6D321686FF012000860A06A40F400700F
:10181000A06220688068C0F3424007280CD1207B7A
:1018200050B9A06A20F48070A062A06AC00403D4FA
:10183000A06A40F00100A06200207BE73400002095
:10184000244992244992240070B5044690F824005B
:1018500001280DD0012084F824002046FFF7A8FDC0
:1018600002004FF0000005D084F82400104670BD3F
:10187000022070BDA16A40F20123994341F48071B6
:10188000A1621F4D23681F49AB4218D10E6816F4A0
:10189000702F14D0A66A46F48016A6620E687605EC
:1018A00005D5A66A26F4005646F48056A662A66AB6
:1018B000F6040AD5E66A26F00606E66206E0A66A9F
:1018C00026F48016A6625E68E9E7E06284F82400E8
:1018D0006FF00200186020688368C3F34243072B4F
:1018E00005D1A84208D1096811F4702F04D081688D
:1018F00041F480118160B9E7816841F4A001F9E702
:10190000002801400424014010B5044690F824004A
:10191000012807D0012084F824002046FFF71CFD91
:1019200010B107E0022010BDA16A21F4885141F0F6
:101930000101A162002184F8241010BD10B590F8B7
:1019400021100022022905D00421816380F8202083
:10195000012010BD01680B6823F00E030B600168C5
:101960000B6823F001030B6090F84030C46B012139
:1019700001FA03F3636080F8211080F820201046FC
:1019800010BD000010B590F821100024022903D0EA
:101990000421816301243DE001680A6822F00E02FF
:1019A0000A6001680A6822F001020A601A4A0168A6
:1019B000914201D1012121E0174A1432914201D113
:1019C00010211BE0144A2832914201D1891515E0FB
:1019D000114A3C32914201D189140FE00E4A503233
:1019E000914202D14FF4803108E00B4A64329142B7
:1019F00002D14FF4801101E04FF08071064A083A9D
:101A00005160012180F82110002180F82010416BE5
:101A100001B18847204610BD080002402DE9F84F6B
:101A2000DFF8B891002409F1040A0AF1040B2346F7
:101A30000F270BF1040EC9E00125A5402A40AA4258
:101A40007DD1674ED1F804C0ACEB0608B44532D066
:101A500014DCBCF1030F3AD009DCBCF1000F2AD032
:101A6000BCF1010F1CD0BCF1020F31D11DE0BCF163
:101A7000110F17D0BCF1120F2AD119E0B8F5881F49
:101A800019D006DCB8F5803F15D0B8F5801F1FD1FE
:101A900011E0B8F5001F0ED0B8F5041F18D10AE008
:101AA000CB6815E0CB681B1D12E0CB6808330FE054
:101AB000CB680C330CE08B682BB1012B4FF0080383
:101AC00003D0456104E0042302E0056100E0002347
:101AD000FF2A01D8064601E000F104064FEA84051A
:101AE00001D9A5F12005D6F8008007FA05FC28EAFF
:101AF0000C0803FA05F548EA0508C6F800804D68A9
:101B0000ED0062D5374DAE6946F00106AE61AD69B4
:101B100024F0030605F001050095334D06EB050C96
:101B2000DCF80850A607360F07FA06F825EA08057C
:101B3000DFF8B880404503D14FF0000817E044E0DB
:101B4000DFF8AC80404502D14FF001080FE0DFF82C
:101B5000A480404502D14FF0020808E0DFF89880E9
:101B6000404502D14FF0030801E04FF0040808FAA5
:101B700006F848EA0508CCF808804D68D9F80060F6
:101B8000ED034D4601D5164300E096432E604D68A7
:101B9000DAF80060AD03554601D5164300E09643E0
:101BA0002E604D68DBF80060ED025D4601D51643FE
:101BB00000E096432E604D68DEF80060AD02754689
:101BC00001D5164300E096432E60641C0D682A463A
:101BD000E5407FF431AFBDE8F88F0000000401401C
:101BE00000001110001002400000014000080140F8
:101BF000000C014000100140001401400AB10161D5
:101C000070470904FBE70000014880687047000046
:101C100028000020024881680278114481607047E2
:101C200028000020074810B5016841F0100101604C
:101C3000032000F0A7F80F2000F006F800F050F89D
:101C4000002010BD0020024030B505461F4887B077
:101C5000C16941F00401C161C06906A900F0040036
:101C6000009001A800F010FA0498B0B100F02CFA2E
:101C700040001749174AB0FBF1F11748491E0260AE
:101C8000416040F2E7320021C0E9032181608161B7
:101C900000F036FC040003D015E000F015FAE8E788
:101CA0000D4800F079FC04000DD11E2000F03CF836
:101CB000102D07D2002229461E2000F043F80748C5
:101CC000056000E0012407B0204630BD001002404E
:101CD00040420F0000080040FC0400202C000020BF
:101CE0000F4808B5816941F001018161816901F006
:101CF00001010091C16941F08051C161C0690022B8
:101D000000F0805000900F21901E00F01BF8054855
:101D1000416821F0E06141F00071416008BD0000C0
:101D20000010024000000140002809DB00F01F0203
:101D3000012191404009800000F1E020C0F800112D
:101D400070470000F0B40E4B1B680C46C3F302232F
:101D5000C3F10705042D00D90425191D072901D257
:101D6000002300E0DB1E012606FA05F1491E214092
:101D700099409E40761E16403143F0BC01F0C7BD2D
:101D80000CED00E0064900F0070208684FF6FF037B
:101D9000184040EA0220034A1043086070470000E0
:101DA0000CED00E00000FA0510B529A401461DCC99
:101DB00086B08DE81D002AA02A4C006804900020FF
:101DC000012923D002293AD010291DD16168226847
:101DD000D20119D5C1F38342C9031DF8020009D508
:101DE000616804AAC1F34041515C1F4AB2FBF1F1A2
:101DF000484301E01D4948436168490204D440005A
:101E00005FF00301B0FBF1F006B010BD226AC2F32F
:101E10000121012903D1920701D5C803F4E7022962
:101E200005D1626A920702D549F64040ECE70329E2
:101E3000EAD121688903E7D54FF22440E4E700F0B6
:101E400053F96168C1F38131491C4900DAE70000A8
:101E500002030405060708090A0B0C0D0E0F1010EB
:101E6000010200000010024000127A0000093D004B
:101E70002DE9F84305460078354CC00754D0E06999
:101E80000026C00008D4E06940F08050E061E069BD
:101E9000012600F0805000902E480168C90512D438
:101EA0000168804641F480710160FFF7ADFE07468E
:101EB00005E000BFFFF7A8FEC01B642823D8D8F8B0
:101EC0000000C005F6D5206A10F4407021D0A98822
:101ED00001F4407181421CD0206A1F49012220F484
:101EE00040700A6000220A602062C00711D0FFF72C
:101EF0008BFE074641F2883808E000BFFFF784FEFA
:101F0000C11B414502D90320BDE8F883206A800740
:101F1000F4D5206A696820F44070084320621EB13D
:101F2000E06920F08050E0612878800705D560687E
:101F3000A96820F44040084360602878C00605D5B1
:101F40006068E96820F48000084360600020DBE7F7
:101F50000010024000700040400442422DE9F0476A
:101F60000F46050061D0434E306800F00700B842CC
:101F700009D2306820F0070038433060306800F044
:101F80000700B84251D128683B4C810712D5400761
:101F900003D5606840F4E06060602878000703D5EE
:101FA000606840F4605060606068A96820F0F000EC
:101FB000084360602878C00728D06868012810D0DE
:101FC0002168022810D0890700292EDA616821F0E3
:101FD000030101436160FFF717FE804641F2883933
:101FE0000DE021688903EFE78901EDE7FFF70CFEBB
:101FF000A0EB0801494502D90320BDE8F0876068DD
:10200000696800F00C00B0EB810FEFD1306800F090
:102010000700B8420BD9306820F007003843306021
:10202000306800F00700B84201D00120E5E72878C9
:10203000400705D56068E96820F4E0600843606007
:102040002878000706D56068296920F4605040EAC6
:10205000C100606000F058F86168084AC1F30311DC
:10206000515CC8400649086006480068FFF7ECFD6F
:102070000020C2E70020024000100240384B000858
:10208000340000202C0000200F2202600C4A53680C
:1020900003F003034360536803F0F0038360536865
:1020A00003F4E063C36052684FF4E06303EAD202D2
:1020B00002610448006800F00700086070470000F3
:1020C00000100240002002400448054900684968A9
:1020D000044AC1F30221515CC8407047340000201B
:1020E00000100240484B0008044805490068496850
:1020F000044AC1F3C221515CC8407047340000203B
:1021000000100240484B000812A185B00FC98DE8AD
:102110000F0014A0144A006804905168134801F09D
:102120000C03042B10D0082B0ED1C1F38343C90339
:102130001DF803000AD5516804AAC1F34041515C5F
:102140000A4A5043B0FBF1F005B0704708494843D4
:10215000FAE7000002030405060708090A0B0C0D44
:102160000E0F1010010200000010024000127A0051
:1021700000093D002DE9F84F040070D02078C04DD3
:10218000C00749D06868C0F38100012807D068689B
:10219000C0F38100022809D16868C00306D5286809
:1021A000800339D560680028E7D035E06068B0F575
:1021B000803F0BD010B1B0F5A02F11D0286820F4CB
:1021C00080302860286820F4802002E0286840F4ED
:1021D00080302860606890B1FFF716FD06460AE07F
:1021E000286840F480202860F0E700BFFFF70CFD6E
:1021F000801B642873D828688003F7D50CE0FFF7AC
:1022000003FD064605E000BFFFF7FEFC801B6428C7
:10221000F0D828688003F7D420789A4E80074FF0D2
:1022200001094FF0000839D5686810F00C0F07D08D
:102230006868C0F38100022809D16868C00306D429
:102240002868800714D52069012808D110E020698A
:10225000B0B1C6F80090FFF7D7FC074605E00AE1E9
:10226000FFF7D2FCC01B0228C4D828688007F7D526
:102270002868616920F0F80040EAC10028600DE09C
:10228000C6F80080FFF7C0FC074604E0FFF7BCFC7F
:10229000C01B022823D828688007F7D420780007BD
:1022A0002CD57948A169D9B1C0F80090FFF7ACFCF2
:1022B000074604E0FFF7A8FCC01B02280FD8686A95
:1022C0008007F7D571484FF4FA510068B0FBF1F080
:1022D000009000BF0098411E0091FAD20EE080E00D
:1022E000C0F80080FFF790FC074604E0FFF78CFC85
:1022F000C01B022875D8686A8007F7D42078400789
:1023000060D5E8690027C00008D4E86940F0805033
:10231000E861E869012700F0805000905C4801689E
:10232000C90513D40168834641F480710160FFF749
:102330006BFC824606E000BFFFF766FCA0EB0A00DC
:1023400064284ED8DBF80000C005F5D5E068012808
:102350000AD008B1052813D0286A20F001002862AD
:10236000286A20F0040002E0286A40F00100286298
:10237000E06841F2883B98B1FFF746FC82460BE0EB
:10238000286A40F004002862EEE700BFFFF73CFC3B
:10239000A0EB0A0159455AD8286A8007F6D50CE007
:1023A000FFF732FC824605E0FFF72EFCA0EB0A01A6
:1023B00059454CD8286A8007F6D41FB1E86920F047
:1023C0008050E861E06988B36968C1F3810102293E
:1023D00044D00228C6F8608004D0FFF715FC0446FC
:1023E00038E034E0FFF710FC074604E0FFF70CFC90
:1023F000C01B02282BD828688001F7D4206AB0F5CA
:10240000803F05D16868A16820F400300843686007
:10241000D4E908010843696821F47411084368602D
:10242000C6F86090FFF7F0FB044606E025E000BF29
:10243000FFF7EAFB001B022809D828688001F7D5BE
:102440001BE000BFFFF7E0FB001B022802D90320BE
:10245000BDE8F88F28688001F4D40EE00128F7D099
:102460006868226A00F48031914204D1616A00F404
:102470007010884201D00120EAE70020E8E7000060
:10248000001002400000424280044242340000201A
:10249000007000407047704770B590F83C20012AEA
:1024A00026D0012480F83C40022280F83D200368B9
:1024B0005A689D6822F070060A6832435A600D4BD4
:1024C00002689A4208D0B2F1804F05D00A4B9A4276
:1024D00002D00A4B9A4204D1496825F0800319437F
:1024E000916080F83D40002180F83C10084670BDA6
:1024F000022070BD002C0140000400400008004094
:1025000010B5040003D094F83D0010B107E001209D
:1025100010BD002084F83C00204600F01FF8022087
:1025200084F83D00211D206800F018FF012084F888
:10253000460084F83E0084F83F0084F8400084F8A8
:10254000410084F8420084F8430084F8440084F891
:10255000450084F83D00002010BD000008B501686A
:102560000B48B1F1804F0BD00A4A914207D1C169A3
:1025700041F00201C161C06900F00200009008BD95
:10258000C16941F00101C161C06900F00100F5E7D6
:10259000001002400004004090F83D10012901D0D5
:1025A00001207047022180F83D100168CA6842F09E
:1025B0000102CA6000680B49884208D0B0F1804F20
:1025C00005D00949884202D00849884204D181686F
:1025D00001F00701062903D0016841F00101016003
:1025E00000207047002C014000040040000800401B
:1025F00070B5044690F83C00012817D0012584F8F6
:102600003C50022084F83D002068826822F0770266
:1026100022F47F4282600868502830D00DDC2028E8
:102620004DD005DC98B310283BD148E0022070BDA6
:10263000302844D0402834D139E0602828D0702890
:1026400006D0B0F5805F2CD0B0F5005F29D10AE04C
:10265000CB68D1E90121206800F0B6FE20688168CE
:1026600041F0770109E0CB68D1E90121206800F051
:10267000ABFE2068816841F48041816011E0CA6846
:102680004968206800F054FF5021206807E016E0F8
:10269000CA684968206800F05CFF6021206800F08B
:1026A0009DFE84F83D50002084F83C0070BDCA684F
:1026B0004968206800F03CFF40212068EFE722686D
:1026C00001461046EBE7704770B5044600680169A3
:1026D0004FF00005C943890715D4C168C94389076C
:1026E00011D4E91E016101202077206880698007EC
:1026F000204602D0FFF7E7FF04E000F0C7F82046CD
:1027000000F056F9257720680169C943490717D4B5
:10271000C168C943490713D46FF004010161022065
:1027200020772068806910F4407F204602D0FFF7B0
:10273000CAFF04E000F0AAF8204600F039F9257736
:1027400020680169C943090716D4C168C94309074C
:1027500012D46FF008010161042020772068C0695D
:102760008007204602D0FFF7AEFF04E000F08EF8AD
:10277000204600F01DF9257720680169C943C90684
:1027800017D4C168C943C90613D46FF010010161A1
:10279000082020772068C06910F4407F204602D0CE
:1027A000FFF791FF04E000F071F8204600F000F917
:1027B000257720680169C943C90708D1C168C943A1
:1027C000C90704D1891E0161204600F0F3F8206892
:1027D0000169C943090609D4C168C943090605D47A
:1027E0006FF0800101612046FFF754FE2068016907
:1027F000C943490609D4C168C943490605D46FF0E5
:1028000040010161204600F0DFF820680169C943FA
:1028100089060BD4C168C943890607D46FF020012B
:1028200001612046BDE87040FFF735BE70BD000075
:1028300000B585B0002100910191029103910068DB
:10284000B0F1804F1AD10E48816941F008018161D1
:102850008069694600F0080004900820009002207A
:10286000019003900748FFF7D9F80748416821F421
:10287000407141F0E06141F48071416005B000BDFC
:1028800000100240000C014000000140704770B58C
:10289000044690F83C000D4601280AD0012084F837
:1028A0003C0042B1042A18D0082A2AD00C2A4DD163
:1028B00039E0022070BD206800F098FD2068816931
:1028C00041F0080181612068816921F00401816182
:1028D000206881692A69114311E0206800F0AEFD8B
:1028E0002068816941F4006181612068816921F477
:1028F00080618161206881692A6941EA02218161E0
:1029000024E0206800F0C6FD2068C16941F008019C
:10291000C1612068C16921F00401C1612068C169F9
:102920002A69114311E0206800F0E0FD2068C169C8
:1029300041F40061C1612068C16921F48061C16115
:102940002068C1692A6941EA0221C161002084F836
:102950003C0070BD10B5040003D094F83D0010B1E8
:1029600007E0012010BD002084F83C00204600F064
:102970001EF8022084F83D00211D206800F0EEFCC6
:10298000012084F8460084F83E0084F83F0084F873
:10299000400084F8410084F8420084F8430084F841
:1029A000440084F8450084F83D00002010BD7047C5
:1029B0007047000000680349884201D1FFF72AB937
:1029C00070470000000800407047704770470000E3
:1029D000F8B5026804461068D168536910F00F0F0B
:1029E0004FF0000553D003F0010601F49077374310
:1029F0005FD0C20705D0CA0503D5226C42F00102A0
:102A00002264420705D5DA0703D0226C42F00202A5
:102A10002264820705D5DA0703D0226C42F0040253
:102A20002264020707D501F02002324303D0226C52
:102A300042F008022264226C002A34D0800604D5B9
:102A4000880602D5204600F041FE20684069216CCE
:102A5000C0F38010090700D430B3204600F01EFEFA
:102A60002068416949061BD5416921F04001416157
:102A7000A06BA8B158494163A06BFEF783FF002803
:102A800011D0A06B416B01B0BDE8F0400847830650
:102A90000FD58B060DD52046BDE8F84000F016BED8
:102AA0002046FFF793FFF8BD2046FFF78FFF256410
:102AB000F8BD266B2023012E52D1C60650D5CE0676
:102AC0004ED5106850680090506940062AD5A16B19
:102AD000086840680004000CEAD0A68D8642E7D959
:102AE000E0858869202818D0D06820F48070D060F4
:102AF0002068416921F0010141612068416921F0AC
:102B00004001416184F83E3025632068C16821F0AE
:102B10001001C160A06BFEF711FFA08DE18D401A7E
:102B200081B219E0A08DE18D401A81B2E08D0028BC
:102B3000BED00029BCD0D06820F49070D06020684E
:102B4000426922F00102426184F83E302563206828
:102B5000C26822F01002C2602046FFF736FFF8BDBF
:102B600005062BD50D0629D594F83D002128F6D170
:102B7000A068B0F5805F01D12069B0B1206A411C26
:102B80002162216800784860E08C401E0004000C3F
:102B9000E084E4D12068C16821F08001C160206830
:102BA000C16841F04001C160F8BD206A0088C0F3EF
:102BB00008005060206A801C2062E5E74006F3D5DB
:102BC0004806F1D5D168204621F04001D16084F853
:102BD0003D3000F0EAF9F8BD8D36000870B504000C
:102BE00004D094F83D00002510B106E0012070BD2E
:102BF00084F83C50204600F023F8242084F83D005F
:102C00002068C16821F40051C160204600F0BAFD7F
:102C10002068016921F4904101612068416921F037
:102C20002A0141612068C16841F40051C1602564F6
:102C3000202084F83D0084F83E00002070BD000094
:102C400070B586B0002400940194029403942B4E36
:102C500003682B49022003222A4DB34229D18B69F4
:102C600043F480438B618B6903F4804304938B6945
:102C700043F004038B618969039201F0040104911C
:102C80000102CDE9001069462846FEF7C7FE281567
:102C9000CDE90004694628460294FEF7BFFE0022F3
:102CA00005212520FFF74EF82520FFF73DF806B057
:102CB00070BD154EB342FAD1CB6943F40033CB61FA
:102CC000CB6903F4003304938B6943F004038B61F5
:102CD0008969039201F0040104910421CDE90010F7
:102CE00069462846FEF79AFE0820CDE900046946A9
:102CF00028460294FEF792FED9E700000038014012
:102D000000100240000801400044004090F83E30AE
:102D1000202B0ED159B152B190F83C30012B08D084
:102D2000012380F83C300023036300F087BD0120BD
:102D3000704702207047000070B54A490068096872
:102D400088427DD1484C494D4FF496762078312801
:102D50000AD133460F2246A1424800F0CDF80122A5
:102D600010212846FEF74AFF207832280AD1334640
:102D70000F2243A13B4800F0BFF801222021284642
:102D8000FEF73CFF207833280AD133460F2240A1BA
:102D9000344800F0B1F8012240212846FEF72EFF0A
:102DA000207861280AD133460E223DA12D4800F03B
:102DB000A3F8002210212846FEF720FF2078622881
:102DC0000AD133460E223AA1264800F095F8002297
:102DD00020212846FEF712FF207863280AD13346C7
:102DE0000E2237A11F4800F087F800224021284614
:102DF000FEF704FF2078302814D13346152234A181
:102E0000184800F079F8002210212846FEF7F6FE57
:102E1000002220212846FEF7F1FE0022402128460C
:102E2000FEF7ECFE207870280FD1334606222EA143
:102E30000C4800F061F800F0AFF93346042200E0DE
:102E400008E02BA1074800F057F801220649054881
:102E5000FFF75CFFBDE870400248012202494430A0
:102E6000FFF754BF5801002000000020000C014073
:102E700052656C6179203120646F6E672E0A000004
:102E800052656C6179203220646F6E672E0A0000F3
:102E900052656C6179203320646F6E672E0A0000E2
:102EA00052656C61792031206361742E0A00000044
:102EB00052656C61792032206361742E0A00000033
:102EC00052656C61792033206361742E0A00000022
:102ED000436120332052656C61792063756E6720F1
:102EE0006361742E0A00000053746172740A00005A
:102EF000456E640A000000002DE9F843044690F88E
:102F00003D001F4616460D4620284CD1C5B1BEB126
:102F100094F83C00012846D0012084F83C004FF092
:102F20000008C4F84080212084F83D00FEF76CFEC4
:102F3000A6848146E684A068B0F5805F03D004E0F3
:102F40000120BDE8F883206928B12E465FF0000516
:102F500084F83C800EE00026FAE78021204600F04D
:102F600088FCA0B9AEB116F8010B21684860E08C6E
:102F7000401EE084E08C4B464FF000020097002892
:102F8000EBD14FF04001204600F073FC30B103203C
:102F9000D7E735F8020BC0F30800E6E7202084F8F5
:102FA0003D000020CDE70220CBE77047FEE70000A0
:102FB0003EB500241648009401941449029401601F
:102FC0008915816004730475022505614FF4602141
:102FD0004460C161FEF7E0FA08B172B6FEE7009402
:102FE00001240720CDE9014069460948FEF752FA5D
:102FF00008B172B6FEE769460548CDE90045FEF71F
:1030000049FA002801D072B6FEE73EBD0024014017
:103010009800002030B585B000241C48009401942D
:1030200002940394816941F020018161816901F07A
:1030300020010491816941F004018161816901F0FD
:1030400004010491816941F0080181618069104D9A
:1030500000F008000490002220212846FEF7CEFD53
:10306000502000900B48CDE9010469462846FEF740
:10307000D5FC202000900120CDE90104022003901E
:1030800069462846FEF7CAFC05B030BD0010024074
:10309000000C01400000111010B58EB00024079400
:1030A000089409940A940B941C2168460C94FDF72B
:1030B000B6F91E484FF0804101604721C0E9011474
:1030C00042F20F71C0E903148461FFF719FA08B1E5
:1030D00072B6FEE74FF48050079007A91348FFF738
:1030E00087FA08B172B6FEE71048FFF733FC08B163
:1030F00072B6FEE70B940BA90C480C94FFF7CCF9C1
:1031000008B172B6FEE77020CDE9000402940422F3
:10311000694606480494FFF7BAFB08B172B6FEE7A9
:103120000248FFF785FB0EB010BD0000C80000206C
:1031300010B586B0002416480094019402940394BC
:10314000049412490594C0E900144FF6FF71C0E9D8
:10315000024104618461FFF7D3F908B172B6FEE75A
:103160004FF48050009069460948FFF741FA08B1D2
:1031700072B6FEE7049404A905480594FFF78CF99C
:10318000002801D072B6FEE706B010BD0004004072
:1031900010010020FEE7FEE770B5064C41F28830D2
:1031A0002168886345002846FEF766F92068856334
:1031B00070BD0000C80000201CB5FEF737F91548A7
:1031C000FEF742FB4FF496711248FEF79FFA114842
:1031D000FEF7DEF901F026FC0F4C206101F0F6FB52
:1031E00000220E4B01F0F4FA00220D4B01F098F989
:1031F00001F064F9A06101F0E9FBCDE9000109A249
:1032000063210A48FDF738F8BDE81C400148FEF785
:103210007BBB00009800002000000020000016404A
:1032200000FEAF40252E326600000000E0010020C5
:103230001CB5FEF70DF91548FEF706FB4FF4967125
:103240001248FEF763FA1148FEF7A2F901F0EAFB13
:103250000F4C606101F0BAFB4FF066320D4B01F08C
:10326000B7FA00220C4B01F05BF901F027F9E0619D
:1032700001F0ACFBCDE9000108A263210948FCF78D
:10328000FBFFBDE81C400148FEF73EBB9800002054
:103290000000002066660A4000FEAF40252E326620
:1032A000000000004402002010B5502080F3118877
:1032B000BFF34F8FBFF36F8F01F024F818B10449AB
:1032C0004FF080500860002080F3118810BD00008E
:1032D00004ED00E030B593B028216846FDF79FF873
:1032E00014210AA8FDF79BF8002501200F951095E1
:1032F0001195010412958DE8230004904FF4E0101D
:10330000CDE90810022407946846FEF733FF08B1A0
:1033100072B6FEE70AA90F2081E831004FF4806001
:10332000CDE90D0502210AA8FEF718FE08B172B614
:10333000FEE74FF4004011900F940FA8FEF798FDA0
:10334000002801D072B6FEE713B030BD7047000010
:103350000148FFF7B9B90000FC040020F0B502688D
:10336000164B174C174D4FF08047984205D0B84286
:1033700003D0A04201D0A84203D122F070064A68CF
:103380003243984205D0B84203D0A04201D0A842AF
:1033900003D122F44074CA6822434C6922F08002AF
:1033A000224302608A68C2620A688262984201D13E
:1033B0000969016301214161F0BD0000002C014059
:1033C000000400400008004010B5846842EA03226F
:1033D00024F47F440A432243826010BD826822F0B5
:1033E00070020A4342F007018160704730B5026AFB
:1033F00022F001020262026A4368846924F07305C4
:103400000C682C4322F002058A682A430A4DA84220
:103410000BD122F00805CA6823F440732A434D6992
:1034200022F004021D438B692B4343608461496889
:103430004163026230BD0000002C014030B5026AD9
:1034400022F010020262026A436884690D6824F463
:10345000E64444EA05248D6822F0200242EA05127F
:103460000B4DA8420ED1CD6822F0800242EA05122F
:103470004D6923F4406343EA85038D6922F04002DD
:1034800043EA85034360846149688163026230BD19
:10349000002C014030B5026A22F480720262036A95
:1034A0004268C46923F4007324F073050C682C434C
:1034B0008D6843EA05230C4DA8420ED1CD6823F454
:1034C000006343EA05234D6922F4405242EA0512A3
:1034D0008D6923F4806342EA05124260C461496841
:1034E000C163036230BD0000002C014030B5026AA8
:1034F00022F480520262046A4268C3690D6823F4B0
:10350000E64343EA05238D6824F4005444EA053475
:10351000064DA84204D14D6922F4804242EA851248
:103520004260C36149680164046230BD002C0140FF
:1035300010B5036A046A24F001040462846924F06B
:10354000F00444EA021423F00A020A43846102628E
:1035500010BD10B5036A23F0100303628369046A87
:1035600023F4704343EA023224F0A00343EA01113A
:103570008261016210BD0000074C4FF47A7500BFF4
:1035800000F024F800F052F821882846491C2180D8
:1035900000F060FAF4E7000020000020044C4FF433
:1035A0007A7528466188491C618000F053FAF8E773
:1035B00020000020044C4FF47A752846A188491C4D
:1035C000A18000F047FAF8E72000002010B5FFF7CF
:1035D000F3FD4FF496742346232209A11148FFF707
:1035E0008BFC10492346642288310E48FFF784FC87
:1035F0002346BDE8104001220BA10A48FFF77CBC1E
:1036000047696120747269206469656E2061702069
:10361000746169206368616E20504130206C613AAA
:1036200020000000580100200A00000010B5FFF73C
:10363000FFFD4FF496742346232209A11148FFF79A
:103640005BFC104923466422EC310E48FFF754FC22
:103650002346BDE8104001220BA10A48FFF74CBCED
:1036600047696120747269206469656E2061702009
:10367000746169206368616E20504131206C613A49
:1036800020000000580100200A00000010B5406A28
:103690000021C185C184FFF799F910BD0168CA688E
:1036A00022F49072CA6001684A6922F001024A61FC
:1036B000016B012904D10168CA6822F01002CA60B6
:1036C000202180F83E1000210163704708B590F872
:1036D0003E10222901D0022008BD82684FF4805399
:1036E0009A4201D1016921B1816A9A421BD04AB143
:1036F0000AE00268816A5268C2F308020A80816A9D
:10370000891C08E0026972B10268526802F07F0207
:103710000A70816A491C8162C18D491E0904090C25
:10372000C18503D019E002685268F1E70168CA68F0
:1037300022F02002CA600168CA6822F48072CA605E
:1037400001684A6922F001024A61202180F83E1096
:10375000016B012903D0FFF7EFFA002008BD00211B
:1037600001630168CA6822F01002CA6001680A6831
:10377000D20602D50A6849680091818DFFF725F9C4
:10378000EBE7000070B5044600680169E26821F4C7
:103790004051114301612169A068084361690843F0
:1037A0002168CA6841F20C639A430243CA602068E8
:1037B0004169A26921F44071114341611E492068A9
:1037C000884202D1FEF790FC01E0FEF77DFC00EBA1
:1037D000C00101EB0012606864218000B2FBF0F3CD
:1037E000B3FBF1F36FF018067343B2FBF0F5B2FBD5
:1037F000F0F605EB8305322303EB0515B5FBF1F578
:10380000B6FBF1F605F0F00505EB0615B2FBF0F698
:10381000B2FBF0F0B0FBF1F06FF01802504306EB92
:10382000800003EB0010B0FBF1F0216800F00F0006
:103830002844886070BD00000038014081628285A4
:10384000C28500210164222280F83E2080F83C10CD
:103850000168CA6842F48072CA6001684A6942F02D
:1038600001024A610068C16841F02001C160002086
:1038700070472DE9F041984617460E460446069DCE
:103880001DE0681C1BD02DB1FEF7BEF9A0EB0800AF
:10389000A84214D92068C16821F4D071C1602068A1
:1038A000416921F001014161202084F83D0084F844
:1038B0003E00002084F83C000320BDE8F081206831
:1038C000006836EA000004D00020B842D9D00020B9
:1038D000F3E70120F9E700000148FFF779B800009D
:1038E00058010020FEE7490050EAC12018BF04201B
:1038F0004A0D18BF40F0010040F2FF72B2EB515F79
:1039000008BF40F00200012808BF052070470907E2
:10391000090E002804DB00F1E02080F80014704755
:1039200000F00F0000F1E02080F8141D70473038DF
:103930000A2801D2012070470020704710B50C4CB6
:103940000A492160472161600021C4E90210204634
:10395000FEF7D6FD2046FEF71FFE21686FF001003E
:10396000086120680169C907FCD010BD000400404F
:103970001001002096B0FEF755F9FFF7ABFCFFF7FA
:1039800049FBFFF715FBFFF787FBFFF7D1FB2A4841
:1039900028494FF4165500240160C0E901540C2653
:1039A000C460C0E904468461C461FFF717F908B137
:1039B00072B6FEE72048214944300160C0E9015455
:1039C000C460C0E904468461C461FFF707F908B127
:1039D00072B6FEE701221A491748FFF797F9164811
:1039E000012217494430FFF791F91C221549684616
:1039F000FCF7E3FC0021684600F038F8104C114950
:103A00001C2260601C3107A8FCF7D7FC002107A826
:103A100000F02CF80B49A0601C2238310EA8FCF7EE
:103A2000CCFC00210EA800F021F8E06000F019F8AD
:103A3000FEE700000038014058010020004400402B
:103A400000000020E44A000801460020842900D03C
:103A5000C81C704710B500B9012000F015FB00200C
:103A600010BD10B500F036FB002010BD7FB50D462F
:103A700004464169B0F9080081B1A16971B1FFF74D
:103A8000E3FFD4E905128DE80700D4E900102B46C6
:103A9000226900F00CFC039004B070BDFFF7D4FF66
:103AA00003A9CDE90001208A2B4682B2D4E9001097
:103AB00000F0D0FB012801D00020EDE70398EBE7F0
:103AC0002DE9F041184C0F46054666692068001D37
:103AD00000F016FA38B9206890F82C1001208840C0
:103AE000A1698143A161681C07D137B12168BDE894
:103AF000F0410E48091D00F047BA20683544B54230
:103B00004560216805D2A068BDE8F041091D00F0BC
:103B100023BA6068091D00F01FFA206B854200D2AD
:103B20002563BDE8F0810000380000202006002059
:103B30002DE9F041054600F033FA2E4C2069401C77
:103B4000206120682C4F10B1E06940B32DE0256062
:103B50002069012829D1002606EB860007EB8000AA
:103B600000F0ECF9761C072EF6D323488C3000F0D9
:103B7000E5F92148A03000F0E1F91F48B43000F029
:103B8000DDF91D48C83000F0D9F91B48DC3000F0E1
:103B9000D5F919488C3060601430A06005E02068C9
:103BA000E96AC06A884200D82560E06A401CE06289
:103BB000E96A0120A26988401043A06101EB8100FD
:103BC00007EB8000291D00F0DFF900F009FAE06939
:103BD00000280CD02068E96AC06A884207D20749E9
:103BE0004FF080500860BFF34F8FBFF36F8FBDE879
:103BF000F0810000380000204405002004ED00E0C2
:103C000010B5044690F8510058B101280CD0022894
:103C10000FD0502080F31188BFF34F8FBFF36F8F09
:103C2000FEE7206B00F0F0F92046BDE8104000F000
:103C3000EBB910BD10484FF44061420706D0C01DDB
:103C40000D4920F00700411AC1F540610B4A0023DD
:103C50000144C2E900030839103A21F0070111605C
:103C60004B600B600B1AC0E9001393604FF00040EB
:103C70005360D060704700003406002084000020AC
:103C8000144E154CA6F1C8074FF08058DFF84C9041
:103C900012E000BF00F084F9F068C568281D00F04C
:103CA0002FF92069401E2061E068401EE06000F0AE
:103CB00097F92846FFF7A4FFE0680028EAD13868A2
:103CC0000128F9D9C9F80080BFF34F8FBFF36F8F78
:103CD000F2E700000C0600203800002004ED00E0B0
:103CE0002DE9F0479A46DDE9098481466FF0030328
:103CF000206B03EB82021044089D20F0070670073A
:103D000007D0502080F31188BFF34F8FBFF36F8F20
:103D1000FEE723180A5C83F834200A5C12B1401CC9
:103D20001028F6D3002784F84370072D00D306250A
:103D3000E562C4E91157201D00F00BF904F11800E9
:103D400000F007F92461C5F107006462A061E7642F
:103D500084F8507052464946304600F0BFF8206063
:103D6000B8F1000F01D0C8F80040BDE8F0870000AE
:103D700030B5114900E011460A688242FBD34B6816
:103D80005C18844203D14068184448600846436880
:103D90001C18944209D1084C103C2468A24209D056
:103DA00052681A4442600A6812680260814200D078
:103DB000086030BD0460F9E78400002006484168CF
:103DC000096829B14168C968C968496801637047D1
:103DD0004FF0FF31FAE70000380000200848406843
:103DE000401C4FF0500080F3118804D0BFF34F8F78
:103DF000BFF36F8FFEE7BFF34F8FBFF36F8FFEE709
:103E00008C0000202DE9F0410546002700F098F9CC
:103E1000314E306808B9FFF70DFFF06805424BD10D
:103E2000C5B3083568070ED005F00700C0F10800DB
:103E30000544680707D0502080F31188BFF34F8FE7
:103E4000BFF36F8FFEE72DB37068854234D82248E8
:103E5000103001460C6801E020460C466168A9421A
:103E600002D221680029F7D131688C4224D007683A
:103E70002168016060680837411B10290FD960195B
:103E8000420708D0502080F31188BFF34F8FBFF353
:103E90006F8FFEE710E041606560FFF769FF6168C2
:103EA0007068401A7060B268904200D2B060F068EA
:103EB00001430020C4E9000100F088FA780707D028
:103EC000502080F31188BFF34F8FBFF36F8FFEE751
:103ED0003846BDE8F08100007400002010B5031FD3
:103EE0004FF080741C601B1F21F001011960191F25
:103EF000024B0B60143940380A6010BDDD3D0008EC
:103F0000D0E9013201699A60D0E901235A604A6818
:103F1000824201D182684A60002202610868401E24
:103F20000860086870470000034B036003F1540009
:103F30000860802010607047A802002000F108018E
:103F40004FF0FF32C0E90112C16001610021016040
:103F5000704700210161704730B50B685A1C02D0D0
:103F600000F1080202E0026904E022465468256874
:103F70009D42FAD953684B6099608A60516008612C
:103F80000168491C016030BD42684A6093688B60DB
:103F900093685960916008610168491C016070472D
:103FA000502080F31188BFF34F8FBFF36F8F0A4902
:103FB0004868401C486001280CD10848006810F08F
:103FC000FF0F07D0502080F31188BFF34F8FBFF34E
:103FD0006F8FFEE7704700008C00002004ED00E0CA
:103FE0000849486828B1401E486001D180F3118813
:103FF0007047502080F31188BFF34F8FBFF36F8F4E
:10400000FEE700008C00002070B5002827D0144D7A
:10401000A0F108046168E868014207D1502080F3EC
:104020001188BFF34F8FBFF36F8FFEE722683AB15D
:10403000502080F31188BFF34F8FBFF36F8FFEE7DF
:104040008143616000F07CF86068696808446860DA
:104050002046FFF78DFEBDE8704000F0B7B970BD97
:10406000740000204FF0E0200021016181610549CA
:104070004FF47A720968B1FBF2F1491E41610721E0
:10408000016170473400002010B5020014D00F48C1
:10409000806B38B1502080F31188BFF34F8FBFF38E
:1040A0006F8FFEE700F04CF800211046FFF708FD87
:1040B00000F08CF9002807D105494FF080500860C6
:1040C000BFF34F8FBFF36F8F10BD0000380000208B
:1040D00004ED00E010B586B00024039405AA04A9FD
:1040E00003A80494FFF720FFDDE903010094CDE964
:1040F000011000230EA11048059A00F0D8F80F49CE
:104100000028486311D0502080F31188BFF34F8FEF
:10411000BFF36F8F4FF0FF3008630120C8614C611F
:1041200006B0BDE8104000F041B806B010BD000078
:1041300049444C4500000000813C00083800002044
:104140000248816B491C81637047000038000020E1
:104150001448816B11B10121416270470021416215
:104160008169B1FA81F1C1F11F0101EB81020E49B0
:1041700051F822306BB101EB820101F108034A686A
:1041800052684A609A4201D152684A60D16801601F
:104190007047502080F31188BFF34F8FBFF36F8FAC
:1041A000FEE7000038000020440500201CB5264929
:1041B00008780190FF20087008788DF800009DF8BD
:1041C00000009DF8002000F0F000904207D0502041
:1041D00080F31188BFF34F8FBFF36F8FFEE79DF819
:1041E00000001A4B00F0500018700720986005E09E
:1041F0009DF8002052008DF80020401E9DF8002000
:104200001206F5D49860032807D0502080F3118857
:10421000BFF34F8FBFF36F8FFEE74FF4407098608E
:10422000019808700A48016841F470010160016852
:1042300041F070410160FFF715FF00205860FBF767
:10424000C1FF00201CBD000000E400E08C00002045
:1042500020ED00E02DE9FF5F8346DDE90E879946FA
:1042600016468A469000FFF7CDFD05001CD054206D
:10427000FFF7C8FD040014D00020256384F8510026
:10428000CDE90240CDE900874B46324651465846BB
:10429000FFF726FD2046FFF74BFC012004B0BDE8E8
:1042A000F09F2846FFF7B0FE4FF0FF30F6E7F0B57D
:1042B00085B0DDE90B640A9DA6B1DCB154270097F7
:1042C0002663022684F85160002604AFCDE9024639
:1042D000CDE90057FFF704FD2046FFF729FC0498BD
:1042E00005B0F0BD502080F31188BFF34F8FBFF3AE
:1042F0006F8FFEE7502080F31188BFF34F8FBFF31D
:104300006F8FFEE72DE9F0412E4C0027A06B40B1E6
:10431000206A401C2062606A00B101273846BDE86F
:10432000F0816669761C666113D16068006838B1F7
:10433000502080F31188BFF34F8FBFF36F8FFEE7DC
:104340006068A1686160A060A06A401CA062FFF77D
:1043500035FD206BDFF87080864209D36068006805
:1043600080B16068C068C568686886420DD2206305
:104370002068C06A00EB800158F821000128CAD9E2
:104380000127C8E74FF0FF30F1E7281DFFF7B8FD20
:10439000A86A18B105F11800FFF7B2FDE86A01211B
:1043A000A26981401143A16100EB800108EB81000B
:1043B000291DFFF7E9FDE86A2168C96A8842CDD363
:1043C0000127CBE738000020440500202DE9F04705
:1043D0002C4D00242746A86B38B1FFF7E1FDA86BF0
:1043E000401EA863A86B40B146E0502080F31188BE
:1043F000BFF34F8FBFF36F8FFEE72969224E012075
:10440000D1B3A6F1B40980463068E8B1F068C46859
:1044100004F11800FFF774FD201DFFF771FDE06A3D
:10442000AA6908FA00F11143A96100EB800109EBC8
:104430008100211DFFF7A8FDE06A2968C96A88424A
:10444000E2D3C5F82480DFE70CB1FFF7B7FC2C6A94
:1044500044B14646FFF756FF00B16E62641EF9D1C3
:1044600000202862686A38B10849012738070860C7
:10447000BFF34F8FBFF36F8FFFF7B2FD3846BDE834
:10448000F087000038000020F805002004ED00E06F
:1044900010B500290AD00878002807D005487844CC
:1044A000FCF74AFB002801D0002010BD02487844E8
:1044B00010BD00008A0700008207000021F00042C2
:1044C000A2F16052B2F5801F01F0004328BFD2F183
:1044D0007F6C0BD95FEA001C43EAC20242EB5070CA
:1044E00018BF704728BF20F001007047B2F5801F49
:1044F000BCBF184670474FEA410C1CF5001F02D2A2
:10450000084600F0E8BA70B500F00CFA0000008927
:10451000FFF7F6BF4FF00040A0F5800070470000A5
:104520002DE9C04130B4DFF8A0C23CEA111418BF35
:104530003CEA131400F0EC8081EA03051CEA111434
:1045400044EAD57418BF1CEA131500F0C780A4EB29
:1045500005044FF0004545EAC12145EAC32341EA7D
:10456000505143EA525304F17F74994204F50034E8
:104570004FEAC0204FEAC22208BF904200F09C8060
:104580004FEA13650FF24016765D4FEA134506FBBE
:1045900005F7C7F1807706FB07F74FEAD737A7FB88
:1045A00003687642C8F58038A7FB06CE38BFA8F16D
:1045B000010807FB08E64FF0000EA6FB028CE6FBA5
:1045C00003CEDCF1000CCEF1004E38BFAEF1010E8F
:1045D000A6FB0C584FF000074FF00005E6FB0E87D6
:1045E000A1FB08C6A0FB07CE16EB0E0645F10005A1
:1045F000E1FB076515F1E04E7EBFA4F580345FEA6C
:1046000046066D4116F1800745F100054FEA172770
:104610004FEA066647EA0567A6F1DE46B6F1805F17
:104620004FEA15251FD9384624F0010C05EBC4715B
:10463000BCF1FE6F01EB0C1102D8F0BCBDE80081AB
:1046400024425CBF01F5801E9EEAC47F02D4F0BC08
:10465000BDE80081244238D4F0BCA1F1C041BDE8DE
:10466000004100F0ADB94FEAD22242EA43524FEA8C
:10467000D323A7FB02864FEAD02040EA415007FB34
:1046800003661EEA0E0F4FEAD12105FB026658BFF2
:10469000A6EB0056B6EB00564FEA520E4EEAC37E2A
:1046A00018EB0E0E56EB530EBDD518EB02085E410B
:1046B0007F1C55F10005B6E74FF480154FF0000759
:1046C0004FF000064FF00008ADE7F0BC4FF00000DF
:1046D00001F1C04101F00041BDE8008111EA0C1F69
:1046E0000CEA131500D00CE013EA0C1F00F0258033
:1046F0004FF00000F0BC81EA030101F00041BDE889
:104700000081F0BCBDE8004181EA030100F058B926
:10471000F0BCBDE8004170B500F004F9097EFC3E34
:1047200000F007B881EA03014FF0000001F00041FA
:10473000704781EA030100F043B9F0BCBDE80041D5
:104740004FF0000021497047FFFDFBF9F7F5F4F247
:10475000F0EEEDEBE9E8E6E4E3E1E0DEDDDBDAD81C
:10476000D7D5D4D3D1D0CFCDCCCBCAC8C7C6C5C47A
:10477000C2C1C0BFBEBDBCBBBAB9B8B7B6B5B4B391
:10478000B2B1B0AFAEADACABAAA9A8A8A7A6A5A47C
:10479000A3A3A2A1A09F9F9E9D9C9C9B9A99999840
:1047A0009797969595949393929191908F8F8E8EE3
:1047B0008D8C8C8B8B8A8989888887878685858470
:1047C00084838382828181800000FF070000F87F5C
:1047D000DFF848C170B51CEA111E1EBF1CEA131594
:1047E0009EEA0C0F95EA0C0F00F06F8081EA03043B
:1047F00023EA4C134EEAD47E21EA4C1141F4801195
:1048000043F48013AE44A1FB024CA0FB0365AEF160
:104810007F7E361955EB0C05A1FB034C4CF10003D0
:10482000A0FB021C16EB0C06654153F10003094284
:1048300018BF46F0010613F4007F0BD14FEA033195
:104840004FEA0530340341EA155140EA16506FF043
:1048500003020AE04FEAC3214FEAC520F40241EA0D
:10486000555140EA56506FF0020202EB2E4201EB26
:10487000025585EACE710AD05FEA440C18BF24F0D5
:10488000004450F1000041F1000120EAD47040F2F0
:10489000FE7C624500D270BDA84214BF4FF0804438
:1048A0004FF04044002E08BF0024BEF1806FA8BF27
:1048B000A1F1C041BDE8704080F282804FF000005D
:1048C00001F1C04101F0004170479EEA0C0F0CEA73
:1048D000131518BF95EA0C0F06D04FF0000081EABF
:1048E000030E0EF0004170BD00F01CF88900013E7F
:1048F00000F007B800F009B84FEA430C5FEA5C5CCF
:1049000008D081EA030100F05BB84FEA410C5FEA8E
:104910005C5CF6D14FF00000014970470000FF07D2
:104920000000F87F0EF1020E2EF0030E5EF8046B0D
:10493000364205D4012A43EB030515F5001F12D8B2
:10494000012841EB010C1CF5001F0CD80ED14FEAD9
:10495000D17C15F5001F0CEB4C0C0CF1020C08BFC0
:104960004CEBD37C04E04FF0080C01E04FEAD37C21
:104970000CEB4C0526FA05F606F00706B6F1040C1A
:1049800006D20EEB860CBDE870404CF0010C60477F
:10499000DFE80CF0090B02024FF000414FF000007D
:1049A000A1F5002170BD19461046012851EB010404
:1049B00018BFD4F5001484BF002001F0004170BD81
:1049C0000808A0F500114FEA3101704743004FEA93
:1049D000D30C4FEA3C0C43401FBF40070CF1605121
:1049E00013F0FE4F70471CF0006F03D100200CF055
:1049F000004170470CF0004343EA507010B540EAA4
:104A0000CC0000F022F800BF000000924FEA000145
:104A1000FFF7D6BF4FF000414FF00000A1F5002195
:104A200070470000B0FA80F310FA03F2C3F19D035F
:104A30000AD0D90501EB1220530638BF704700F1A8
:104A4000010008BF20F0010070470EF1020E2EF0A9
:104A5000030E5EF8044B244204D44FEA4102B2F143
:104A60007F4F11D84FEA4003B3F17F4F0CD80ED1DE
:104A70004FEAD07CB2F17F4F0CEB4C0C0CF1020CE6
:104A800008BF4CEBD17C04E04FF0080C01E04FEA8A
:104A9000D17C0CEB4C0324FA03F404F00704B4F1CA
:104AA000040C06D20EEB840CBDE810404CF0010C57
:104AB0006047DFE80CF0070802024FF00040A0F565
:104AC000800010BD0846420018BFD2F1807288BF36
:104AD00000F0004010BDFF2141EAD050C0057047F2
:104AE000FBF7A0BDF04B000879350008000000007E
:104AF0000000000080000000000000000000000036
:104B0000F84B00089D350008FDFF00000000000084
:104B1000800000000000000000000000E44B0008DE
:104B2000B5350008FDFF0000000000008000000017
:104B30000000000000000000000000000000000075
:104B40000102030406070809000000000102030433
:104B500002400000000000A000000000054000002E
:104B6000000000C8000000000C4000000000409C55
:104B700000000000194000000020BCBE0000000042
:104B800034400000BFC91B8E00000004B540000087
:104B9000504BCFD06607E2CF010000006C4100000F
:104BA0003E8251AADFEEA73401000000D942000086
:104BB000DCB5A0E23A301F97FFFFFFFFB4450000CD
:104BC000FD25A0C8E9A3C14FFFFFFFFFFF3F000085
:104BD0000000008000000000FF3F00000000008097
:104BE00000000000506C757365313030000000002B
:104BF000566F6C74616765005472616E6665725FB2
:104C00005265636569766500444C00080000002029
:104C10009800000028010008DC4C000898000020E3
:104C200000180000440100081C00000043000000C0
:104C3000F8FFFFFF0C0000000E0000000F00000056
:104C40002E00000000000000000000000000000036
:104C50000000000000000000000000000000000054
:104C60000000000000000000000000000100000043
:104C700010000000000000000024F400000000000C
:104C80000000000000000000000000000000000024
:104C90000000000000000000000000000000000014
:104CA0000000000000000000000000000000000004
:104CB00000000000000000000000000000000000F4
:104CC00000000000000000000000000000000000E4
:0C4CD00000000000AAAAAAAA0000000030
:04000005080000ED02
:00000001FF
